:020000040800F2
:100000000000012045D70008F5F600083DF700087C
:100010005DF7000865F700086DF7000800000000B4
:1000200000000000000000000000000075F700085C
:1000300081F70008000000008DF70008B5F7000800
:100040008DD700088DD700088DD7000899F70008D4
:100050008DD700088DD7000805F800088DD7000857
:100060008DD7000815F800088DD700088DD7000837
:100070008DD700088DD700088DD700088DD70008D0
:100080008DD700088DD700088DD700088DD70008C0
:100090008DD700088DD700088DD7000825F80008F7
:1000A0008DD700088DD700088DD700088DD70008A0
:1000B0008DD700088DD700088DD700088DD7000890
:1000C0008DD700088DD700088DD700088DD7000880
:1000D0008DD700088DD700088DD700088DD7000870
:1000E000D9F700088DD7000835F800080000000097
:1000F0000000000000000000000000000000000000
:1001000000000000000000008DD700088DD7000817
:100110008DD700088DD700088DD700088DD700082F
:100120008DD700088DD700088DD700088DD700081F
:100130008DD70008EDF70008F9F700088DD7000803
:100140008DD700088DD700088DD7000879F80008F2
:10015000000000000000000000000000000000009F
:10016000000000000000000000000000000000008F
:10017000000000000000000000000000000000007F
:10018000000000000000000000000000000000006F
:10019000000000000000000000000000000000005F
:1001A000000000000000000000000000000000004F
:1001B000000000000000000000000000000000003F
:1001C000000000000000000000000000000000002F
:1001D000000000000000000000000000000000001F
:0401E0005FF8E0F1F3
:1001E80008B540F2D860074BC2F200001B1A062B74
:1001F80000D808BD40F20003C0F20003002BF8D07D
:100208009847F6E7DB06002008B540F2D86040F2D0
:10021800D863C2F20000C2F200031B1A9B1003EB62
:10022800D373591000D108BD40F20002C0F2000299
:10023800002AF8D09047F6E710B540F2D864C2F229
:100248000004237873B9FFF7CBFF40F20003C0F234
:1002580000032BB142F67C60C0F60100AFF30080CA
:100268000123237010BD00BF08B540F20003C0F29F
:1002780000034BB142F67C6040F2DC61C0F601003D
:10028800C2F20001AFF3008040F2D860C2F2000071
:1002980003682BB140F20003C0F2000303B1984792
:1002A800BDE80840B0E700BF2DE9F84FC1F30A5791
:1002B800A7F2FF360246132E0B4604460D46894622
:1002C8008A46804625DC002E57DB4FF6FF77C0F2C2
:1002D8000F07374107EA010C5CEA000C1ED038A36F
:1002E800D3E9002300F076F80022002300F0B4FCE4
:1002F80058B1002D4FF00008C2BF4FF4801A4AFAD7
:1003080006F606EB050A2AEA070940464946BDE80B
:10031800F88F332E06DDB6F5806F46D010461946A5
:10032800BDE8F88F4FF0FF3BA7F2134C2BFA0CFBFC
:100338001BEA000FF2D022A3D3E9002300F04AF809
:100348000022002300F088FC0028DED0002D0DDDFF
:10035800142E09D0C7F586674FF00108033708FA4D
:1003680007F818EB040801D305F1010A28EA0B087D
:10037800D14640464946BDE8F88F11A3D3E900238A
:1003880000F028F80022002300F066FC0028BCD00A
:10039800002D0EDB55EA040808BFC146B5D04FF062
:1003A8000009C846C3F6F079AFE700F013F8BDE8D6
:1003B800F88F4FF000084FF00049A6E7AFF3008030
:1003C8009C7500883CE4377E81F0004102E000BF64
:1003D80083F0004330B54FEA41044FEA430594EAFD
:1003E800050F08BF90EA020F1FBF54EA000C55EA38
:1003F800020C7FEA645C7FEA655C00F0E2804FEA09
:100408005454D4EB5555B8BF6D420CDD2C4480EAEA
:10041800020281EA030382EA000083EA010180EA1A
:10042800020281EA0303362D88BF30BD11F0004F68
:100438004FEA01314FF4801C4CEA113102D040429E
:1004480061EB410113F0004F4FEA03334CEA1333D9
:1004580002D0524263EB430394EA050F00F0A780F1
:10046800A4F10104D5F1200E0DDB02FA0EFC22FAEC
:1004780005F2801841F1000103FA0EF2801843FAE0
:1004880005F359410EE0A5F120050EF1200E012AD1
:1004980003FA0EFC28BF4CF0020C43FA05F3C0180F
:1004A80051EBE37101F0004507D54FF0000EDCF188
:1004B800000C7EEB00006EEB0101B1F5801F1BD331
:1004C800B1F5001F0CD349085FEA30004FEA3C0C35
:1004D80004F101044FEA445212F5800F80F09A802B
:1004E800BCF1004F08BF5FEA500C50F1000041EB2F
:1004F800045141EA050130BD5FEA4C0C404141EB33
:10050800010111F4801FA4F10104E9D191F0000F59
:1005180004BF01460020B1FA81F308BF2033A3F1DC
:100528000B03B3F120020CDA0C3208DD02F1140CD3
:10053800C2F10C0201FA0CF021FA02F10CE002F10E
:100548001402D8BFC2F1200C01FA02F120FA0CFC07
:10055800DCBF41EA0C019040E41AA2BF01EB045150
:10056800294330BD6FEA04041F3C1CDA0C340EDC4E
:1005780004F11404C4F1200220FA04F001FA02F391
:1005880040EA030021FA04F345EA030130BDC4F14F
:100598000C04C4F1200220FA02F001FA04F340EA44
:1005A8000300294630BD21FA04F0294630BD94F0F5
:1005B800000F83F4801306BF81F480110134013DDC
:1005C8004EE77FEA645C18BF7FEA655C29D094EA4D
:1005D800050F08BF90EA020F05D054EA000C04BFCB
:1005E8001946104630BD91EA030F1EBF00210020B6
:1005F80030BD5FEA545C05D14000494128BF41F055
:10060800004130BD14F580043CBF01F5801130BDB8
:1006180001F0004545F0FE4141F470014FF0000043
:1006280030BD7FEA645C1ABF194610467FEA655CF4
:100638001CBF0B46024650EA013406BF52EA033596
:1006480091EA030F41F4002130BD00BF90F0000F84
:1006580004BF0021704730B54FF4806404F13204C0
:100668004FF000054FF0000150E700BF90F0000F79
:1006780004BF0021704730B54FF4806404F13204A0
:1006880010F0004548BF40424FF000013EE700BF70
:1006980042004FEAE2014FEA31014FEA02701FBF00
:1006A80012F07F4393F07F4F81F06051704792F0D2
:1006B800000F14BF93F07F4F704730B54FF460744C
:1006C80001F0004521F0004120E700BF50EA010297
:1006D80008BF704730B54FF000050AE050EA010244
:1006E80008BF704730B511F0004502D5404261EBB4
:1006F80041014FF4806404F132045FEA915C3FF4F5
:10070800DCAE4FF003025FEADC0C18BF03325FEA8D
:10071800DC0C18BF033202EBDC02C2F1200300FA42
:1007280003FC20FA02F001FA03FE40EA0E0021FA67
:1007380002F11444C1E600BF70B54FF0FF0C4CF451
:10074800E06C1CEA11541DBF1CEA135594EA0C0F07
:1007580095EA0C0F00F0DEF82C4481EA030621EA42
:100768004C5123EA4C5350EA013518BF52EA03357D
:1007780041F4801143F4801338D0A0FB02CE4FF02F
:100788000005E1FB02E506F00042E0FB03E54FF05F
:100798000006E1FB03569CF0000F18BF4EF0010E57
:1007A800A4F1FF04B6F5007F64F5407404D25FEA53
:1007B8004E0E6D4146EB060642EAC62141EA555106
:1007C8004FEAC52040EA5E504FEACE2EB4F1FD0C48
:1007D80088BFBCF5E06F1ED8BEF1004F08BF5FEAC6
:1007E800500E50F1000041EB045170BD06F0004678
:1007F80046EA010140EA020081EA0301B4EB5C0425
:10080800C2BFD4EB0C0541EA045170BD41F480111C
:100818004FF0000E013C00F3AB8014F1360FDEBF41
:10082800002001F0004170BDC4F10004203C35DA1D
:100838000C341BDC04F11404C4F1200500FA05F3A0
:1008480020FA04F001FA05F240EA020001F0004241
:1008580021F0004110EBD37021FA04F642EB0601B7
:100868005EEA430E08BF20EAD37070BDC4F10C04E1
:10087800C4F1200500FA04F320FA05F001FA04F2A5
:1008880040EA020001F0004110EBD37041F1000191
:100898005EEA430E08BF20EAD37070BDC4F120059C
:1008A80000FA05F24EEA020E20FA04F301FA05F204
:1008B80043EA020321FA04F001F0004121FA04F2AC
:1008C80020EA020000EBD3705EEA430E08BF20EA7C
:1008D800D37070BD94F0000F0FD101F000464000B6
:1008E80041EB010111F4801F08BF013CF7D041EA38
:1008F800060195F0000F18BF704703F0004652003C
:1009080043EB030313F4801F08BF013DF7D043EA0C
:100918000603704794EA0C0F0CEA135518BF95EAC2
:100928000C0F0CD050EA410618BF52EA4306D1D149
:1009380081EA030101F000414FF0000070BD50EA68
:10094800410606BF1046194652EA430619D094EAF2
:100958000C0F02D150EA013613D195EA0C0F05D1DC
:1009680052EA03361CBF104619460AD181EA030130
:1009780001F0004141F0FE4141F470014FF00000E8
:1009880070BD41F0FE4141F4780170BD70B54FF083
:10099800FF0C4CF4E06C1CEA11541DBF1CEA135503
:1009A80094EA0C0F95EA0C0F00F0A7F8A4EB0504E5
:1009B80081EA030E52EA03354FEA013100F08880DC
:1009C8004FEA03334FF0805545EA131343EA1263A5
:1009D8004FEA022245EA111545EA10654FEA00265A
:1009E8000EF000419D4208BF964244F1FD0404F513
:1009F800407402D25B084FEA3202B61A65EB03056F
:100A08005B084FEA32024FF480104FF4002CB6EB2B
:100A1800020E75EB030E22BFB61A754640EA0C00AB
:100A28005B084FEA3202B6EB020E75EB030E22BFEB
:100A3800B61A754640EA5C005B084FEA3202B6EB2C
:100A4800020E75EB030E22BFB61A754640EA9C00EB
:100A58005B084FEA3202B6EB020E75EB030E22BFBB
:100A6800B61A754640EADC0055EA060E18D04FEA79
:100A7800051545EA16754FEA06164FEAC30343EA19
:100A880052734FEAC2025FEA1C1CC0D111F4801FE6
:100A98000BD141EA00014FF000004FF0004CB6E7DF
:100AA80011F4801F04BF01430020B4F1FD0C88BF7E
:100AB800BCF5E06F3FF6AFAEB5EB030C04BFB6EB89
:100AC800020C5FEA500C50F1000041EB045170BD7C
:100AD8000EF0004E4EEA113114EB5C04C2BFD4EBA9
:100AE8000C0541EA045170BD41F480114FF0000E2D
:100AF800013C90E645EA060E8DE60CEA135594EAA9
:100B08000C0F08BF95EA0C0F3FF43BAF94EA0C0FAB
:100B18000AD150EA01347FF434AF95EA0C0F7FF420
:100B280025AF104619462CE795EA0C0F06D152EA74
:100B380003353FF4FDAE1046194622E750EA410658
:100B480018BF52EA43067FF4C5AE50EA41047FF469
:100B58000DAF52EA43057FF4EBAE12E74FF0FF3CCE
:100B680006E000BF4FF0010C02E000BF4FF0010C9F
:100B78004DF804CD4FEA410C7FEA6C5C4FEA430C18
:100B880018BF7FEA6C5C1BD001B050EA410C0CBF67
:100B980052EA430C91EA030F02BF90EA020F0020C9
:100BA800704710F1000F91EA030F58BF994208BF30
:100BB80090422CBFD8176FEAE37040F001007047ED
:100BC8004FEA410C7FEA6C5C02D150EA013C07D144
:100BD8004FEA430C7FEA6C5CD6D152EA033CD3D08F
:100BE8005DF8040B704700BF8446104662468C4689
:100BF8001946634600E000BF01B5FFF7B7FF0028BC
:100C080048BF10F1000F01BD4DF808EDFFF7F4FFE4
:100C18000CBF012000205DF808FB00BF4DF808ED6F
:100C2800FFF7EAFF34BF012000205DF808FB00BF92
:100C38004DF808EDFFF7E0FF94BF012000205DF8B4
:100C480008FB00BF4DF808EDFFF7CEFF94BF012069
:100C580000205DF808FB00BF4DF808EDFFF7C4FF62
:100C680034BF012000205DF808FB00BF4FEA4102B5
:100C780012F5001215D211D56FF47873B3EB6252E6
:100C880012D94FEAC12343F0004343EA505311F00D
:100C9800004F23FA02F018BF404270474FF000009F
:100CA800704750EA013005D111F0004008BF6FF0DD
:100CB800004070474FF00000704700BF4FEA410204
:100CC800B2F1E04324BFB3F5001CDCF1FE5C0DD9A2
:100CD80001F0004C4FEAC0024CEA5070B2F1004FEC
:100CE80040EB830008BF20F00100704711F0804FEF
:100CF80021D113F13872BCBF01F00040704741F4B4
:100D080080114FEA5252C2F11802C2F1200C10FAB7
:100D18000CF320FA02F018BF40F001004FEAC1239B
:100D28004FEAD32303FA0CFC40EA0C0023FA02F33F
:100D38004FEA4303CCE77FEA625307D150EA013315
:100D48001EBF4FF0FE4040F44000704701F00040E5
:100D580040F0FE4040F40000704700BF80F00040C3
:100D680002E000BF81F0004142001FBF5FEA41037B
:100D780092EA030F7FEA226C7FEA236C6AD04FEA7B
:100D88001262D2EB1363C1BFD218414048404140C0
:100D9800B8BF5B42192B88BF704710F0004F40F472
:100DA800000020F07F4018BF404211F0004F41F48E
:100DB800000121F07F4118BF494292EA030F3FD05A
:100DC800A2F1010241FA03FC10EB0C00C3F120036D
:100DD80001FA03F100F0004302D5494260EB4000FC
:100DE800B0F5000F13D3B0F1807F06D340084FEA67
:100DF800310102F10102FE2A51D2B1F1004F40EB5C
:100E0800C25008BF20F0010040EA030070474900C3
:100E180040EB000010F4000FA2F10102EDD1B0FA8E
:100E280080FCACF1080CB2EB0C0200FA0CF0AABF83
:100E380000EBC25052421843BCBFD0401843704721
:100E480092F0000F81F4000106BF80F40000013227
:100E5800013BB5E74FEA41037FEA226C18BF7FEAFE
:100E6800236C21D092EA030F04D092F0000F08BF40
:100E78000846704790EA010F1CBF0020704712F027
:100E88007F4F04D1400028BF40F00040704712F166
:100E980000723CBF00F50000704700F0004343F0CB
:100EA800FE4040F4000070477FEA226216BF084601
:100EB8007FEA23630146420206BF5FEA412390EAC4
:100EC800010F40F4800070474FF0000304E000BFBA
:100ED80010F0004348BF40425FEA000C08BF70476B
:100EE80043F0964301464FF000001CE050EA01022F
:100EF80008BF70474FF000030AE000BF50EA010244
:100F080008BF704711F0004302D5404261EB410130
:100F18005FEA010C02BF84460146002043F0B64355
:100F280008BFA3F18053A3F50003BCFA8CF2083A7A
:100F3800A3EBC25310DB01FA02FC634400FA02FC83
:100F4800C2F12002BCF1004F20FA02F243EB02008A
:100F580008BF20F00100704702F1200201FA02FCEC
:100F6800C2F1200250EA4C0021FA02F243EB0200DF
:100F780008BF20EADC7070474FF0FF0C1CEAD05223
:100F88001EBF1CEAD15392EA0C0F93EA0C0F6FD0E4
:100F98001A4480EA010C400218BF5FEA41211ED0C2
:100FA8004FF0006343EA501043EA5111A0FB0131AE
:100FB8000CF00040B1F5000F3EBF490041EAD37183
:100FC8005B0040EA010062F17F02FD2A1DD8B3F1FF
:100FD800004F40EBC25008BF20F00100704790F06E
:100FE800000F0CF0004C08BF49024CEA502040EAC0
:100FF80051207F3AC2BFD2F1FF0340EAC250704786
:1010080040F400004FF00003013A5DDC12F1190FC3
:10101800DCBF00F000407047C2F10002410021FA35
:1010280002F1C2F1200200FA02FC5FEA310040F14D
:10103800000053EA4C0308BF20EADC70704792F0C6
:10104800000F00F0004C02BF400010F4000F013AFE
:10105800F9D040EA0C0093F0000F01F0004C02BFF9
:10106800490011F4000F013BF9D041EA0C018FE768
:101078000CEAD15392EA0C0F18BF93EA0C0F0AD06E
:1010880030F0004C18BF31F0004CD8D180EA010094
:1010980000F00040704790F0000F17BF90F0004F2D
:1010A800084691F0000F91F0004F14D092EA0C0F0F
:1010B80001D142020FD193EA0C0F03D14B0218BFA2
:1010C800084608D180EA010000F0004040F0FE40E8
:1010D80040F40000704740F0FE4040F44000704784
:1010E8004FF0FF0C1CEAD0521EBF1CEAD15392EA03
:1010F8000C0F93EA0C0F69D0A2EB030280EA010CF3
:1011080049024FEA402037D04FF0805343EA11118B
:1011180043EA10130CF000408B4238BF5B0042F1E9
:101128007D024FF4000C8B4224BF5B1A40EA0C008E
:10113800B3EB510F24BFA3EB510340EA5C00B3EBC0
:10114800910F24BFA3EB910340EA9C00B3EBD10FAE
:1011580024BFA3EBD10340EADC001B0118BF5FEA00
:101168001C1CE0D1FD2A3FF650AF8B4240EBC25029
:1011780008BF20F0010070470CF0004C4CEA5020EA
:101188007F32C2BFD2F1FF0340EAC250704740F439
:1011980000004FF00003013A37E792F0000F00F02B
:1011A800004C02BF400010F4000F013AF9D040EAA9
:1011B8000C0093F0000F01F0004C02BF490011F43D
:1011C800000F013BF9D041EA0C0195E70CEAD15335
:1011D80092EA0C0F08D142027FF47DAF93EA0C0F1C
:1011E8007FF470AF084676E793EA0C0F04D14B0200
:1011F8003FF44CAF08466EE730F0004C18BF31F0B2
:10120800004CCAD130F000427FF45CAF31F00043AB
:101218007FF43CAF5FE700BF4FEA4002B2F1FE4FF8
:101228000FD34FF09E03B3EB12620DD94FEA0023A0
:1012380043F0004310F0004F23FA02F018BF404279
:1012480070474FF00000704712F1610F01D1420260
:1012580005D110F0004008BF6FF0004070474FF014
:10126800000070470023002270B5C3F6F05304460F
:101278000D46FFF761FA00F017F80646FFF7E6F9A2
:1012880000230022C4F2F013FFF756FA02460B4679
:1012980020462946FFF79CF800F006F80022314660
:1012A80042EA0004204670BD4A0011D212F500122D
:1012B80011D20DD56FF47873B3EB62520ED44FEAA6
:1012C800C12343F0004343EA505323FA02F0704726
:1012D8004FF00000704750EA013002D14FF0FF3064
:1012E80070474FF00000704740F20003C2F200035D
:1012F80000B585B0186869460EF09AF9431C06D007
:10130800009B0198029A1844039B1044184405B0A6
:101318005DF804FB70B542F69C6642F69C65C0F623
:101328000106C0F60105761BB6101CBF043D00245B
:1013380005D0013455F8043F9847A642F9D142F642
:10134800A06642F69C65C0F60105C0F60106761B4C
:1013580011F090FDB6101CBF043D002406D00134E6
:1013680055F8043F9847A642F9D170BD70BD00BF3B
:101378000F2AF0B445D940EA01039B0745D1A2F1F1
:1013880010070C4603463F0900EB07161036256880
:101398001033103443F8105C54F80C5C43F80C5CC0
:1013A80054F8085C43F8085C54F8045C43F8045C9F
:1013B800B342ECD17B1C02F00F0CBCF1030F4FEAD7
:1013C80003131944034422D90E461D46644656F8B1
:1013D800047B043C032C45F8047BF8D8ACF10404E6
:1013E80002F0030224F0030404342344214432B1FC
:1013F8000A4411F8014B914203F8014BF9D1F0BCB2
:1014080070470346002AF3D1F9E70346F0E762463E
:10141800002AEDD1F3E700BF8307F0B448D0541E8B
:10142800002A43D0CDB2034602E0002C3ED0144639
:1014380003F8015B13F0030F04F1FF32F5D1032C1D
:101448002DD9CDB20F2C45EA052545EA054518D911
:10145800A4F1100703F110061A463F0906EB071618
:101468001560103242F80C5C42F8085C42F8045CE3
:10147800B242F5D104F00F040137032C03EB071334
:101488000DD91E462246043A46F8045B032AFAD8C8
:10149800221F04F0030422F00302043213442CB187
:1014A800C9B21C4403F8011BA342FBD1F0BC70472E
:1014B80014460346C3E700BF0CB40B4670B59CB096
:1014C80020AC02A902936FF0004554F8042B4FF4A6
:1014D800027606932346ADF8146001944FF6FF7424
:1014E80004950795ADF8164000F060F8029B0022BD
:1014F8001A701CB0BDE8704002B070470EB440F2DC
:101508000003F0B59CB021ACC2F20003064602A964
:1015180054F8042B6FF0004518684FF402772346FF
:10152800029606964FF6FF760194ADF8147004956E
:101538000795ADF8166000F039F8029B00221A7082
:101548001CB0BDE8F04003B0704700BF20F00301B5
:1015580010F00300C0F1000051F8043B00F1040C46
:101568004FEACC0C6FF000021CBF22FA0CF21343B6
:101578004FF0010C4CEA0C2C4CEA0C4CA3EB0C027F
:1015880022EA030212EACC1204BF51F8043B0430E9
:10159800F4D013F0FF0F1FBF013013F47F4F013059
:1015A80013F47F0F18BF0130704700BF2DE9F04FCB
:1015B800C9B0914614930B910E9002F017FC006885
:1015C8001A90FFF7C3FF0B9CA3891D90180603D53B
:1015D8002369002B01F0798042F60C1538ACC0F66F
:1015E800010515950DF1DF050895159D38AF09948E
:1015F80042F65C6405F11006089D0023C0F601045C
:10160800119317947C1B1B931C9319931E9312938D
:1016180021942D932C932B9799F80030252B18BFE4
:10162800002B00F0B38009F101021446013223783F
:10163800252B18BF002BF8D1B4EB09050FD02C9B34
:101648002D9A0133C7F80090072B7D602A442C930C
:101658002D92D8BF08377FDC12982844129023783F
:10166800002B00F0818000238DF88F301A461393E9
:101678000A9304F1010963784FF0FF340C9409F1DF
:101688000109A3F12001582900F20A84DFE811F0CA
:101698008E030804080495030804080408040804D1
:1016A800080408049C03480308045D003502080484
:1016B800EF03F603F603F603F603F603F603F60361
:1016C800F603F603080408040804080408040804D8
:1016D80008040804080408046E0290020804900232
:1016E8000804080408040804CD0208040804D40205
:1016F8000804080408040804080455020804080437
:10170800BC030804080408040804080408040804BE
:10171800080408040804A803D70390029002900262
:101728008703D703080408044C0308045E03240253
:101738007003F0020804F702080480000804080493
:101748002003139C1493644213940A9D45F00405E6
:101758000A9599F8003092E70E982BAA0B9903F096
:10176800BFFE40B938AF77E72D9B23B10E982BAA5F
:101778000B9903F0B5FE0B9C1298A38913F0400F48
:1017880018BF4FF0FF3049B0BDE8F08F4C4666E710
:101798000A9C1693A30640F1D981149D0123EA1DE2
:1017A80022F0070202F108041494D2E900454FF030
:1017B800000A8DF88FA00C9800280C98A2BF0A99EF
:1017C80021F080010A9154EA05020CBF002201228F
:1017D800002818BF42F00102002A00F0E583012B1F
:1017E80000F00985022B0DF1DF0240F05981DDF888
:1017F80064C004F00F01230943EA057328091CF8A3
:1018080001101C460546904654EA050002F1FF32D5
:1018180088F80010EDD1099BC8EB030310930C9CCA
:10182800109DA542B8BF254600240D951894BAF11D
:10183800000F02D00D9D01350D950A9B13F0020390
:101848000F931EBF0D9C02340D940A9C14F084055E
:1018580040F04683139C0D98C0EB040BBBF1000FBE
:1018680040F33E83BBF1100F42F60C1A2D99DCBFF2
:10187800C0F6010A2C9A32DDC0F6010ACDF87C8048
:101888002095D8462C9AD3461024CA46159DDDF8D3
:101898002C9004E0A8F11008B8F1100F19DD0132FE
:1018A8001031072A3D607C6007F108072C922D91C2
:1018B800F0DD0E9849462BAA38AF03F011FE002838
:1018C8007FF459AFA8F110082D99B8F1100F2C9A90
:1018D800E5DCD146209DDA46C346DDF87C8001323E
:1018E8000BEB0104072A2C922D9487E8000C00F3D7
:1018F800EC829DF88FA00837BAF1000F0ED02C9B10
:101908000DF18F0201343A6001330122072B7A600E
:101918002D94D8BF08372C9300F302840F9B6BB12A
:101928002C9B24AA02343A6001330222072B7A60E6
:101938002D94D8BF08372C9300F3FE83802D00F038
:1019480046830C9D109BC3EB050ABAF1000F43DDDB
:10195800BAF1100F2C9BDCBF944D0F9527DD9348EF
:1019680022461025DDF838B00B9C0F9004E0AAF150
:10197800100ABAF1100F19DD01331032072B3E603F
:101988007D6007F108072C932D92F0DD584621461B
:101998002BAA38AF03F0A4FD00287FF4ECAEAAF11F
:1019A800100A2D9ABAF1100F2C9BE5DC144601336E
:1019B8000F9D072B54442C9387E82004D8BF083781
:1019C8002D9409DD0E982BAA0B9903F089FD0028A8
:1019D8007FF4D1AE2D9C38AF0A9DEB0500F18282D1
:1019E8002C9B109D0133C7F80080072B2C447D6089
:1019F8002D942C9300F37A8308370A9D6B0740D502
:101A080013980D99451A002D3BDD102D42F60C1A3E
:101A18002C9BC0F6010A22DD22464FF01008DDF8A3
:101A280038B0159C02E0103D102D17DD013310323F
:101A3800072B87E810012C9307F108072D92F2DD98
:101A480058460B992BAA38AF03F04AFD00287FF4BB
:101A580092AE103D2D9A102D2C9BE7DC14460133D5
:101A68002C44072B2C932D94C7F800A07D6008DD2B
:101A78000E982BAA0B9903F033FD00287FF47BAE58
:101A88002D9C129D0D9913988142ACBF6D182D188D
:101A98001295002C40F03583002338AF2C93BBE51A
:101AA800E308E90843EA457390460D4604F0070247
:101AB8001C4602F1300354EA050108F1FF3288F8A8
:101AC8000030EDD10A9C4146E00700F1F584099DFC
:101AD800C8EB05051095A2E60A9D169315F020039C
:101AE80000F0B480149C0023E21D22F0070202F1EA
:101AF80008051495D2E9004559E699F8003009F12E
:101B080001042A2B00F09187A3F13001092982BF33
:101B1800A14600240C943FF6B4AD002000EB8000F1
:101B280014F8013B01EB4000A3F130010929F5D974
:101B380040EAE070A1460C90A3E50A9D169345F093
:101B480010050A950A9CA3063FF527AE0A9DED06E7
:101B580000F1C4830A9C640640F1C08314980025F0
:101B68000123043030F8044C149020E60A9C1693A4
:101B780044F010040A940A9D8DF88F20A90640F1BC
:101B88006581149CE31D23F0070303F108051495F0
:101B9800D3E9002314461D46002A73F10000C0F261
:101BA800BB839DF88FA0012305E600BF1C2901080F
:101BB8000A9C169325078DF88F2040F1AB84149D5D
:101BC800EB1D23F0070303F1080414941D681B950B
:101BD8005B681C931B981C9903F028FB01281B9831
:101BE80040F07884002200231C99FFF717F800289A
:101BF80040F04A869DF88FA00325002442F620680D
:101C080042F61C630D95C0F601080A9DC0F6010353
:101C18000C94169C25F080050A950325472CD8BFFF
:101C2800984610950024189401E60A9D45F0080589
:101C38000A9599F8003022E50A9C169344F010049E
:101C48000A940A9D15F020037FF44CAF0A9C14F007
:101C5800100240F04C830A9C14F0400300F04783C4
:101C6800149813460025043030F8044C14909EE56F
:101C78000A9D45F020050A9599F80030FFE4149C68
:101C88000025169304348DF88F5054F8048CB8F15D
:101C9800000F00F0D9850C9800284046C0F2AB85AB
:101CA80029460C9A02F07CFB002800F0FF8514946A
:101CB800C8EB00000C9C0C95A042B8BF04461094D9
:101CC80024EAE4750C9C0D959DF88FA01894AEE558
:101CD8000A9D42F64064C0F601041693A8068DF8E2
:101CE8008F20199440F19C80149CE31D23F0070376
:101CF80003F108051495D3E900450A98C30740F194
:101D0800278254EA050100F02382169A302340F016
:101D180002008DF890300A9002238DF8912046E554
:101D280099F800302B22AAE499F8003049466C2B28
:101D380005BF09F101090A9D0A9C45F020050BBF62
:101D48004B7844F010040A950A9498E40A9D8DF89B
:101D58008F20A90640F1EB83149C2168129C22462F
:101D6800E5172B46149DC1E900230435149553E467
:101D7800149A42F640600A9D7823C0F601008DF857
:101D8800913045F0020516930A953023151D8DF8FC
:101D980090301495022314680025199007E50A9CD1
:101DA80044F040040A9499F8003068E499F8003047
:101DB800002A7FF464AC202261E40A9D45F0010505
:101DC8000A9599F800305AE4149C149D24682B1D38
:101DD800002C1394FFF6B5AC149399F800304EE438
:101DE800149A0124149D0DF1B80816930023126863
:101DF80004359A460D9414958DF88F300C931893EA
:101E080010948DF8B82018E50A9D42F62C64C0F6A7
:101E180001041693A8068DF88F2019943FF564AF36
:101E28000A9CE10600F153820A9C620640F14F8247
:101E380014980025043030F8044C14905DE70A9D8E
:101E48001693A9068DF88F203FF59BAE0A9CE206F3
:101E580000F155820A9C630640F1518214980430BF
:101E680030F9044C14902246E5172B4694E60A9D57
:101E780045F080050A9599F8003000E40024A3F1A4
:101E880030012046139400EB800019F8013B01EB68
:101E98004000A3F130010929F5D91390FFF7F1BBF0
:101EA80016938DF88F20002B3FF45EAC169C002310
:101EB80001259A460D950DF1B8088DF8B8408DF8B2
:101EC8008F300C9318931095B7E40E982BAA0B99A2
:101ED80003F006FB00287FF44EAC9DF88FA038AFC6
:101EE8002D9C09E5169D652D40F3B9801B980022AD
:101EF80000231C99FEF788FE002800F02C812C9BFB
:101F08000122179D013413447A60072B2D943D60FC
:101F1800D8BF08372C9300F31683259B119DAB423D
:101F280003DB0A9DED077FF568AD1D9D2C9B2C44B6
:101F38001A9D01332D94072B2C933D601D9D7D60C8
:101F4800D8BF083700F35E83119D05F1FF38B8F15B
:101F5800000F7FF752ADB8F1100F2C9B40F3AA8108
:101F6800AC4D4FF0100ADDF82CB00F950E9D05E032
:101F7800A8F11008B8F1100F40F39E810133103416
:101F8800072B87E840042C9307F108072D94EFDD11
:101F9800284659462BAA38AF03F0A2FA00287FF446
:101FA800EAAB2D9C2C9BE3E7002B40F0B4800A9C05
:101FB800E2075CBF10930DF1E0087FF530AC219D7E
:101FC80030230DF1DF088DF8DF30109527E41398E2
:101FD8000D99451A002D7FF7B4AC102D2C9BDCBF52
:101FE8008C4A0F9224DD8B4822464FF0100BDDF807
:101FF80038A00B9C0F9002E0103D102D17DD013327
:102008001032072B87E840082C9307F108072D9218
:10201800F2DD504621462BAA38AF03F061FA0028BA
:102028007FF4A9AB103D2D9A102D2C9BE7DC1446AC
:1020380001330F99072B2C442C9387E82200D8BF33
:1020480008372D947FF77DAC0E982BAA0B9903F0D7
:1020580047FA00287FF48FAB2D9C38AF71E4119DAF
:102068002C9B012D40F3E2810121621C0B44C7F82F
:102078000080072B79602D92D8BF08372C9300F386
:10208800F4811A9D5C1CDDF874A0072C2C943D602B
:1020980092441D9DCDF8B4A07D60D8BF083700F3E9
:1020A800D7811B98002200231C99FEF7ADFD00285C
:1020B80040F0B2800134119D072C08F1010205F1AE
:1020C800FF332C949A443A60CDF8B4A07B6000F3B7
:1020D800E4800837631C1E9D1E9C072B27AA2C939F
:1020E800544487E824002D947FF786AC0E982BAAD9
:1020F8000B9903F0F5F900287FF43DAB2D9C38AF20
:102108007BE40E982BAA0B9903F0EAF900283FF418
:10211800C3ACFFF730BB10920DF1E008FFF77FBBAF
:102128000E982BAA0B9903F0DBF900287FF423AB58
:102138002D9C38AFFFF7F2BB0E982BAA0B9903F032
:10214800CFF900287FF417AB2D9C38AFFFF7F6BB0B
:102158000223FFF72CBB259B002B40F3FF81119D29
:10216800189811998542A8BF0546002D41440C9145
:102178000CDD2C9B2C44C7F8008001337D60072BB5
:102188002D942C93D8BF083700F34383189A25EA77
:10219800E575C5EB020ABAF1000F40F3DD80BAF12C
:1021A800100F2C9BDCBF1B4D0F9540F3C080194DC1
:1021B80022464FF0100B0B9C0F950E9D05E0AAF1DF
:1021C800100ABAF1100F40F3B18001331032072B17
:1021D80087E840082C9307F108072D92EFDD284681
:1021E80021462BAA38AF03F07BF900287FF4C3AA55
:1021F8002D9A2C9BE3E7002D08BF0A2C80F0418123
:10220800219D30340DF1DF088DF8DF401095FFF780
:1022180006BB00BF1C290108119D05F1FF38B8F164
:10222800000F7FF757AFB8F1100FDCBFA84B0F9323
:1022380028DDA74D53464FF0100BDDF82CA00F9565
:102248000E9D04E0A8F11008B8F1100F19DD013453
:102258001033072C87E840082C9407F108072D93C2
:10226800F0DD284651462BAA38AF03F039F900288B
:102278007FF481AAA8F110082D9BB8F1100F2C9CAF
:10228800E5DC9A4601340F9B072CC2442C94CDF808
:10229800B4A087E808017FF71CAF0E982BAA0B990A
:1022A80003F01EF900287FF466AADDF8B4A038AF61
:1022B8002C9C0FE7864D0F9501330F9D072B444447
:1022C8002C932D9487E820017FF796AB0EE7149D99
:1022D800043555F8044C149500250EE5149D01238A
:1022E800043555F8044C14950025FFF760BA149D81
:1022F800043555F8044C14950025FFF758BA149D79
:10230800043555F8044C14952246E5172B46002A47
:1023180073F10000BFF645AC4FF02D0A644265EB3F
:1023280045058DF88FA00123FFF745BA1446013300
:102338000F9D072B54442C9387E82004D8BF0837F7
:102348002D9409DD0E982BAA0B9903F0C9F80028E3
:102358007FF411AA2D9C38AF189D259BA844119D88
:10236800AB4249DB0A9DE90746D40C981199C8EBA2
:102378000005CB1AAB42B8BF1D46002D0CDD2C9AC8
:102388002C44C7F8008001327D60072A2D942C92D6
:10239800D8BF083700F34A8225EAE575C5EB03087C
:1023A800B8F1000F7FF729ABB8F1100F2C9B81DD36
:1023B800474D4FF0100ADDF82CB00F950E9D05E043
:1023C800A8F11008B8F1100F7FF776AF0133103479
:1023D800072B87E840042C9307F108072D94EFDDBD
:1023E800284659462BAA38AF03F07AF800287FF41C
:1023F800C2A92D9C2C9BE3E71D9D2C9A2C441A9D69
:1024080001322D94072A2C923D601D9D7D60D8BF16
:102418000837AADD0E982BAA0B9903F061F800285B
:102428007FF4A9A9259B38AF2D9C9EE70A9DEA0752
:102438003FF51AAE012204F1010A9C18C7F8008082
:10244800072CCDF8B4A02C947A607FF742AE24E72D
:102458000E982BAA0B9903F043F800287FF48BA958
:10246800DDF8B4A038AF2C9C1BE60E982BAA0B996C
:1024780003F036F800287FF47EA92D9A38AF2C9BFC
:10248800FFE50DF1DF0B204629460A22002303F061
:1024980089FFD8462046294600230BF1FF3B3032FE
:1024A80088F800200A2203F07DFF04460D4654EA0E
:1024B8000500E8D1FFF7AFB9302B3FF4ACA9099C70
:1024C8003023904601F8013CA41A1094FFF7A7B9ED
:1024D8001C2901081C9902F0A9FE002840F0AB80D5
:1024E80003250A9C42F6286842F624630D95C0F637
:1024F8000108169DC0F6010324F080040C900A948C
:10250800472DD8BF98460324189010949DF88FA0A3
:10251800FFF78DB9149CE31D23F0070303F10805A9
:1025280014951C681B945B681C93FFF753BB0A9CAB
:10253800E20672D5149D129C043555F8043C149596
:102548001C60FFF769B80E982BAA0B9902F0C8FF18
:1025580000287FF410A92D9C38AFDEE42C9A0121C5
:10256800179D01340A442D94072A2C923D60796006
:1025780000F312810837194629B9119D1DB90A9D22
:10258800E8077FF53AAA2C9B1D9A01331D9D22442A
:102598001A9C072B2D927D603C60D8BF08372C937E
:1025A80000F3BA81C1F1000ABAF1000F40F31681B5
:1025B800BAF1100FDCBF9C4C0F9440F3F9809A4D90
:1025C8001024DDF82CB00F950E9D05E0AAF1100A35
:1025D800BAF1100F40F3EC8001331032072B3E6044
:1025E8007C6007F108072C932D92EFDD28465946A9
:1025F8002BAA38AF02F074FF00287FF4BCA82D9AEC
:102608002C9BE3E70E982BAA0B9902F069FF002890
:102618007FF4B1A82D9C38AF96E4149C0A9D04342D
:1026280054F8043C15F0400F129D149414BF1D80FB
:102638001D60FEF7F1BF0C9D169C013524F02005A6
:1026480004BF06240C9406D0472D04D10C9C002C02
:1026580008BF01240C941C9B0A9C002B44F4807432
:102668000F94BDBF1C464FF02D0B04F1004ADDF856
:1026780070A0A8BF4FF0000BB5F14604614261415C
:10268800002930D003200C9C5346009025A81B9AA3
:10269800029026A80194039029A804900E98079107
:1026A80000F084FA472D0799804603D10A9CE00779
:1026B80040F1F0800C9C444451B398F80030302B22
:1026C80000F08481259B1C4422E00E98402101F0F3
:1026D800AFFB20602061002800F0B6810B9C4023EE
:1026E8006361FEF779BF452D40F031810C980221D6
:1026F8001B9A5346441C0091019425A90E980291F7
:1027080026A9039129A9049100F050FA80460444AF
:1027180000231B9800225146FEF776FA234648B953
:10272800299B9C4206D930215A1C29921970299B51
:102738009C42F9D8472DC8EB0303119300F0AE80F3
:10274800169C652C40F38A81169D662D00F0018148
:10275800259C1894189C119DAC42C0F2EA800A9CF2
:10276800189DE0074BBF013525EAE57325EAE573B7
:1027780067244DBF672410951694109548BF16948A
:10278800BBF1000F75D10F9C0D93CDF830B00A94B2
:102798009DF88FA0FFF74BB80E982BAA0B9902F063
:1027A8009FFE00287EF4E7AF259938AF2D9CE3E61D
:1027B80001330F9C072B52442C9387E81004D8BF91
:1027C80008372D920ADD0E982BAA0B9902F088FE85
:1027D80000287EF4D0AF2D9A38AF2C9B0133119D81
:1027E800119C072B2C931444C7F800802D947D600E
:1027F8007FF702A97AE40C95FEF7A8FE14940C9CC6
:102808009DF88FA0189420EAE07510900D95FFF7B9
:102818000EB80E982BAA0B9902F062FE00287EF4DF
:10282800AAAF2D9C38AFB1E41C2901080E982BAA39
:102838000B9902F055FE00287EF49DAF259B38AF1A
:10284800119A2D9CD31AA7E50C9DC24642F65468EE
:102858001494062D28BF0625CDF830A010955446AF
:1028680025EAE575CDF860A00D95C0F60108FEF7DC
:10287800DEBF0F9D4FF02D0A00240D938DF88FA019
:102888000A950C94FEF7D6BF4FF02D0A8DF88FA04D
:10289800FFF7B2B9299BC8EB03031193259BDA1CF8
:1028A80011DB0C9C9C420EDB189353E70C9D14948F
:1028B80025EAE5750D950C9D18900C9010959DF8DE
:1028C8008FA0FEF7B4BF169D023D1695013B169DDD
:1028D800002B2593BABF5B422D222B22092B8DF8A2
:1028E8009C508DF89D2043DC30338DF89F30302389
:1028F8008DF89E3028AB119D27AA119C9A1A012D9C
:102908001E921444109478DD109B0024189401330F
:10291800109323EAE37333E70E982BAA0B9902F07E
:10292800DFFD00287EF427AF259938AF2D9A2C9B20
:1029380038E6189D119C002DD4BFC5F10203012370
:102948001C446725109424EAE473169518E70220BE
:1029580099E6259D002D189558DD0C9C002C44D136
:102968000A9DED0741D4189C24EAE473109407E704
:1029780046F267610DF1AA05C6F2666181FB032084
:10298800DA172C46013DC2EBA00202EB8200A3EB52
:1029980040001346092B00F130022270EEDC0DF1E5
:1029A800AB003033A842DAB204F8012C53D90DF148
:1029B8009D01234601E013F8012B834201F8012F02
:1029C800F9D148ADC4EB4503F63B94E71B980022C8
:1029D80000235146FEF718F900287FF473AE0C98CF
:1029E800C0F1010325931C4492E60C9D189C6B1CB6
:1029F8001C44109424EAE473C2E60A9C14F0010310
:102A080082D1109D189325EAE573B9E60C9D35B976
:102A18000A9CE4075CBF012310937FF5B1AE0C9DBF
:102A28000235109525EAE573AAE6149D99F8013058
:102A3800A1462D680C95149D291D0C9D1491002DFF
:102A4800BEF61DAEFEF718BE0E9D0C234FF0FF30EC
:102A58002B60FEF798BE0DF19E034CE7259B35E7EA
:102A68002DE9F04F8C46036983460D6985B09D4278
:102A7800C8BF002000F39680013D01F114040BF15A
:102A8800140A54F82510AA005AF825009146013175
:102A98000292CDF804C05244039203F045FBA144CE
:102AA800DDF804C08046002841D0002122460846AF
:102AB80053460F4652F8041B1E6891451FFA81FEC3
:102AC8004FEA11410EFB08771FFA86FE01FB08F159
:102AD80001EB1741BFB2C7EB0000864488B2C0EBD8
:102AE80016404FEA114700EB2E401FFA8EFE4EEAC1
:102AF80000414FEA204043F8041BDBD2029A5AF8FF
:102B08000230A3B9039A131F9A450ED252F8043C17
:102B18005BB9A2F1080301E0126832B99A451A4676
:102B280005F1FF35A3F10403F6D3CBF81050614645
:102B3800584601F079FF002833DB08F101085346B5
:102B4800002254F8046B1868A145B1B24FEA164642
:102B5800C1EB020287B202EB0701C6EB104202EB9F
:102B6800214289B241EA02414FEA224243F8041B5A
:102B7800E7D25AF825200AEB850392B91A1F924525
:102B88000DD253F8042C52B9083B01E0126832B94F
:102B98009A451A4605F1FF35A3F10403F6D3CBF89D
:102BA8001050404605B0BDE8F08F00BF2DE9F04F4A
:102BB8009BB0466A044692469B46279D002E00F02D
:102BC800BB82336853B172680126194696409E60ED
:102BD8005A6001F0CFFC636A00221A60BBF1000F53
:102BE800B4BF012300232B604FF00003B4BF2BF0C8
:102BF8000049D9461A46C7F6F073C7F6F07209EAD3
:102C08000303B8BFCB46934214D00022002350469A
:102C18005946FDF7F9FF804628B3269E0123336005
:102C2800289E002E00F0DC80AF4B581E33601BB08E
:102C3800BDE8F08F269E42F66C6042F20F73C0F634
:102C480001003360BAF1000F00F0AA80289E002E20
:102C5800EDD0C378002B40F0B280C31C289E3360AF
:102C68001BB0BDE8F08F19AA18AB0092204601935B
:102C780052465B4601F0E8FF5FEA19550B9040F0B9
:102C8800A180189F6FF48263199D3D449D42C0F254
:102C980078824FF60E4305F21242CFF6FF732AFAF6
:102CA80002F25B1B09FA03F01043FDF7CFFC013D6C
:102CB800B84601261596A1F1F87100230022C3F643
:102CC800F873FDF785FB82A3D3E90023FDF734FDF4
:102CD80081A3D3E90023FDF77DFB064628460F466E
:102CE800FDF7C4FC7EA3D3E90023FDF725FD0246CA
:102CF8000B4630463946FDF76DFB06460F46FDF795
:102D0800B5FF39460022002304903046FDF786FFC0
:102D1800002840F02682049E162E84BF01260F96B6
:102D280012D842F6A0115246C0F601015B4601EBEB
:102D3800C601D1E90001FDF78FFF002800F01F82CE
:102D4800013E049600260F96C5EB0805013D069541
:102D580049BF6E4200260A96002654BF0A96069678
:102D6800049E002EC0F2F181DDF818E00E96B644FC
:102D78000026CDF818E00C96249E092E35D8052E8D
:102D8800C4BF043E2496249ECCBF00250125B31E53
:102D9800032B2CD8DFE813F06103290270038D059B
:102DA80042F6606242F66C63C9F31300C0F6010292
:102DB800C0F6010300280CBF1046184646E700F18C
:102DC80008034BE7CBF31303CDF8548043F07F534C
:102DD8005046A5F2FF35DDF8608043F440116CE7FA
:102DE80042F65C60C0F6010021E700262496656A79
:102DF8000023194620464FF0FF3625936B6009964D
:102E0800149601F081FB636A01260D9628601B6801
:102E18000893199B002BC0F2C780049E0E2E00F366
:102E2800C380DDF894E042F6A013099EC0F60103C2
:102E38004FEADE72002ECCBF002202F00102049E8F
:102E480003EBC603D3E90001CDE90601002A40F0EF
:102E58006E8402460B4650465946FDF797FD089E7C
:102E6800FDF704FF751C8046FDF700FCDDE906232D
:102E7800FDF762FC02460B4650465946FDF7A8FA94
:102E8800099ADDF820E008F13003012A8EF80030B5
:102E980006460F465BD000230022C4F22403FDF748
:102EA8004BFC0022002306460F46FDF7ADFE002826
:102EB80040F01985DDF820A0099808998244CDF8DA
:102EC8000CA001F10209DDE906AB1AE0AFF30080BE
:102ED80061436F63A787D23FB3C8608B288AC63F18
:102EE800FB799F501344D33F5D2E0108FDF724FC66
:102EF8000022002306460F46FDF786FE002840F014
:102F0800F28452465B4630463946FDF73FFD4D4652
:102F1800FDF7ACFE8046FDF7A9FB52465B46FDF780
:102F28000BFC02460B4630463946FDF751FA08F1CC
:102F3800300E09F801EC0023DDF80CE00022C4F2A1
:102F48002403F14509F1010906460F46CED1324660
:102F58003B4630463946FDF73DFA06460F463246AF
:102F6800DDE906013B46FDF759FE002800F07085B3
:102F7800DDF82090049E2A4615F8018C08951696CF
:102F880005E04B4500F0B88413F8018C1A46B8F1F7
:102F9800390F02F1FF33F4D0169E089208F10102AE
:102FA8000496D2B21A70B1E00D9E002E40F0F18066
:102FB8000C9E0A9DDDF8348006980028C8BF002DB5
:102FC80009DD03460A99AB42A8BF2B46ED1AC91A78
:102FD800C01A0A9106900C9A002A1CDD0D9B002B42
:102FE80000F07984002E10DD41463246204601F07B
:102FF80063FC0B9A80462046414601F0BDFB0B99C5
:103008000746204601F0B6FA0B97DDF830E0BEEB34
:10301800060240F0A7842046012101F0A3FB0646E2
:103028000E98002805DD314620460E9A01F044FC32
:1030380006462499012940F3908300270E9800281A
:1030480040F06C830120069B034413F01F0300F03B
:103058009382C3F12002042A40F36885C3F11C035C
:103068000A99069A1D4419440A911A4406920A9923
:10307800002905DD0B9920460A9A01F079FC0B908E
:10308800069A002A04DD3146204601F071FC064606
:103098000F9B002B40F02183249809990228D4BF64
:1030A800002301230029C8BF0023002B00F01A8247
:1030B8000998002840F00F82314603460522204631
:1030C80001F074FA06460B98314601F0ADFC002871
:1030D80040F30182DDF820900025049A3123013263
:1030E80089F80030049209F101030893314620461B
:1030F80001F040FAB8F1000F08D0454518BF002D7F
:1031080040F04A824146204601F034FA20460B99A5
:1031180001F030FA049E00224846731C089E327063
:10312800269E3360289E002E3FF481AD08983060BB
:1031380048461BB0BDE8F08F102000F069FE6062C1
:10314800466086600660C66048E50A9EDDF810E0C5
:10315800CEEB06060A96CEF100060C9600260E96D1
:103168000AE60498FDF782FA32463B46FDF74CFD25
:1031780000287FF4D0AD049E013E0496CBE50F9065
:10318800E2E54FF6EE30CFF6FF70401B0AFA00F08A
:103198008BE5249E012E40F3158409980C99461E50
:1031A8000998B142AFBFC6EB01060C9A0C96C2EB68
:1031B8000603BFBF0E9EF6180E9600260028B9BF5C
:1031C80000230A990A9D099BB8BFC0EB01050A9A1A
:1031D8002046DDF818E001211A440A929E44CDF8F1
:1031E80018E001F0BFFA8046E6E600260D96049E38
:1031F800DDF894E0B644CDF850E00EF101060996EA
:10320800002E40F35983099E0E2E8CBF002505F031
:1032180001053746666A172F4FF00001716009D91A
:10322800012204235B00114603F114000132B84265
:10323800F8D97160204601F067F9636A30601B684D
:103248000893002D3FF4E5AD049ECDE912AB002EA6
:1032580040F3AB8106F00F0242F6A0133511C0F619
:10326800010303EBC203E906D3E9006740F18F814C
:1032780042F690235046C0F60103594605F00F0563
:103288004FF00308D3E90823FDF780FB82468B46FD
:103298009DB142F69029C0F60109EA073046394641
:1032A80007D5D9E9002308F10108FDF745FA0646D4
:1032B8000F466D1009F10809EFD132463B465046DA
:1032C8005946FDF763FB06460F460F9850B1002399
:1032D800304639460022C3F6F073FDF79FFC0028FC
:1032E80040F015834046FDF7C1F932463B46FDF7ED
:1032F80023FA00230022C4F21C03FDF76BF8804672
:103308000998A1F15079002800F0C9800499DDF8E6
:1033180024C016910D9A002A00F0798142F6A01374
:10332800089AC0F60103002103EBCC030020C3F682
:10333800E071551C53E90223CDF808C0FDF726FBC0
:1033480042464B46FDF744F882468B46304639469E
:10335800FDF78CFC8046FDF789F908F130085FFA23
:1033680088F802460B4630463946FDF731F8DDF855
:1033780020E08EF8008006460F46504659463246F1
:103388003B46FDF769FC002840F0C2830021324625
:103398003B460020C3F6F071FDF71AF802460B46CB
:1033A80050465946FDF758FCDDF808C0002840F0A3
:1033B8001483BCF1010F40F3F580DDF820901794D9
:1033C800E144CDF84090A94610E000210020C3F662
:1033D800F071FCF7FDFF52465B46FDF71FFC002825
:1033E80040F0F9821098814500F0DB8000235046B8
:1033F80059460022C4F22403FDF79EF90023002257
:10340800C4F2240382468B4630463946FDF794F9C8
:103418000D460446FDF72AFC8046FDF727F908F11A
:1034280030085FFA88F802460B4620462946FCF722
:10343800CFFF52465B4609F8018B06460F46FDF75B
:10344800EDFB32463B460028BFD0169E4D46179CE2
:10345800DDF820900496089558E600260D962598E4
:10346800002840F333820E288CBF002505F00105A3
:10347800074614900990CDE601260D96EFE74046E1
:10348800FDF7F4F832463B46FDF756F900230022D3
:10349800C4F21C03FCF79EFF8046A1F1507900237B
:1034A80030460022C4F214033946FCF791FF424625
:1034B8004B4682468B46FDF7CFFB0646002840F078
:1034C800A38042465046594609F10043FDF7A6FB42
:1034D800002867D0B04625990025DDF82090C9431B
:1034E800049103E60D98002840F064810025DDF87A
:1034F80024A0DDF820B0DDF82C9002E001F056F8A9
:10350800814631464846FFF7ABFA49460A2200236E
:1035180000F130070BF80570013520465545EDDB05
:10352800DDF820B01D460998CDF82C900128ACBFD5
:1035380083440BF1010B0B990122204601F018FA84
:1035480031460B9001F070FA002840F36F821BF8A7
:10355800012C089905E08B4200F0288213F8012C11
:103568009B46392A0BF1FF33F5D00132DDF8209064
:103578001A70CDF820B0B9E51C23DDF828E01D4409
:1035880006989E44CDF828E0184406906FE5DDE9DA
:1035980012AB4FF002087BE62946204600F0EAFF0E
:1035A800B0E5179CDDE912AB33E4049E7542002DAB
:1035B80000F09D8105F00F0242F6A013C0F601034A
:1035C800DDE9120103EBC203D3E90023FDF7B4F8E8
:1035D8002D1106460F4600F0978242F690294FF0CB
:1035E8000208C0F60109EB073046394607D5D9E984
:1035F800002308F10108FDF79FF806460F466D10F5
:1036080009F10809EFD160E60026B04662E50CF141
:10361800FF3B42F6A011C0F60101089801EBCB016F
:1036280042464B4600F1010AD1E90001CDF808C035
:10363800FDF782F8CDE9100139463046FDF716FB53
:103648000546FDF713F8303502460B463046394635
:10365800FCF7BEFE0F46089906460D70DDF808C057
:10366800BCF1010F22D0089A3046394602F1FF39E1
:103678001546E14400230022C4F22403FDF75CF858
:103688000F460646FDF7F2FA8046FCF7EFFF08F111
:10369800300802460B4630463946FCF799FE05F8D5
:1036A800018F4D45E6D106460F46DA440023002235
:1036B800C3F6E073DDE91001FCF78CFE32463B46A9
:1036C800FDF7ACFA002800F05481DDF8209052464E
:1036D8001AF8018CCDF820A059E40B98314601F076
:1036E800A3F90028BFF6D8ACDDF810E020460B9906
:1036F8000A2200230EF1FF3ECDF810E000F056FF3D
:103708000B900D98002841D11499149B002903DCD3
:10371800249A022A00F307820993E7E6336906EB45
:103728008303186900F0D4FFC0F120008BE4099EE0
:10373800002E40F08B8100230022C4F21403DDE93F
:103748000601FCF7F9FF52465B46FDF77BFA099E36
:10375800B04600287FF4BFAEBCE4BAF1000F7FF496
:103768006CACCBF313035746002B7FF467AC2BF0FC
:1037780000473F0D3F05002F3FF460AC0A9A012730
:10378800069B01320A920133069357E4002341460F
:103798000A22204600F00AFF149A2499002ACCBF76
:1037A800002301230229D8BF00238046002B40F0C4
:1037B800B6810992002D05DD41462A46204601F0D2
:1037C800D7F88046C446002F40F0538109990AF083
:1037D8000103089A37460898E1460A4409930A9271
:1037E800451C0B9E0AE000F0E1FE49460A22002330
:1037F8008046204600F0DAFE8146013539463046DB
:10380800FFF72EF941468246304601F00DF94A4647
:1038180039468346204601F029F90AF1300205921B
:1038280005F1FF3ECDF818E0C2680346002A3ED1F4
:1038380019463046029301F0F7F8029B02462046EB
:103848001946029200F096FE029A2498104303D17A
:103858000999002900F04A81BBF1000FC0F2C3802A
:1038680024995BEA010103D1099B002B00F0BB807E
:10387800002A00F31B810A9BAB46059A9D4205F876
:10388800012C00F0248131460A220023204600F052
:103898008DFEC84541464FF00A024FF00003064628
:1038A8002046A0D100F082FE80468146A5E701228D
:1038B800C5E701260D969AE40E2E8CBF0022012240
:1038C800666A0023154019467360B3E40122259205
:1038D80014920992F4E70B9920460C9A00F0ECFF39
:1038E8000B90FFF798BBDDF8209008950EE4DDE912
:1038F80012674FF00208E8E4169E30210892312240
:10390800013689F8001004961A70FFF7FFBB099971
:1039180000293FF4B4AD149A002A7FF743AE002380
:10392800002230463946C4F22403FCF705FF049B05
:10393800013B1693064608F101000F46FCF796FE78
:1039480002460B4630463946FCF7F6FE00230022B5
:10395800C4F21C03FCF73EFDDDF850C08046A1F11F
:103968005079D7E40B99204600F0A6FF0B90FFF79B
:1039780052BB0021DDE910230020C3F6E071FCF7FB
:1039880027FD32463B46FDF767F900283FF40AAEAB
:1039980053460AF1FF3A13F8012C302AF8D0169E44
:1039A800DDF8209008930496FFF7B0BBDDF820906F
:1039B80031230499CDF820B0013189F80030049101
:1039C800FFF794BB159E002E69D003F233430C9E7B
:1039D8000A9DFFF7FCBB179C4D46DDF820902A4650
:1039E8000895FFF7D4BA002A0B96CC463E46059FA9
:1039F80012DD0B9901222046CDF8089000F0B8FF9F
:103A080031460B9001F010F8DDF808C0002877DD8A
:103A1800392F62D00AF13107069B4546DDF8209020
:103A2800E046581C1F700890FFF760BB02D1FB07E7
:103A38003FF58DAD5B460BF1FF3B13F8012C302AA7
:103A4800F8D0DDF820900893FFF750BB002641E539
:103A5800DDE9060132463B46FDF7D6F800283FF47B
:103A680042AF18F0010FDDF820903FF43EAFFFF7AA
:103A780081BAD8F80410204600F046FDD8F8103076
:103A880008F10C019A1C920005460C30FDF770FCF9
:103A980020462946012200F06BFF844696E6189BD3
:103AA8000C9E0A9DC3F13603FFF791BB0B963E4669
:103AB800059FCC46392F10D0069B0137DDF82090A2
:103AC8004546581CE0461F700890FFF70FBB0B9641
:103AD80045463E46C846059F2DE5069B3922454684
:103AE8000899E04603F1010B1A703AE50B963E4639
:103AF800059FCC46392FF0D0BBF1000F8ADC8BE74D
:103B08008AD1FA0788D583E74FF00208FFF7DDBBB3
:103B1800169EDDF8209008950496FFF7F7BA149AD8
:103B28000992FFF7C5BA0993FFF7C2BA3FF49FAAF3
:103B3800C3F13C0321E500BFF8B540F27014C2F2AE
:103B480000040F46054600F0DBFCA3685E6826F01B
:103B58000306F71B07F6EF773F0B013F3F03B7F567
:103B6800805F07DB2846002101F088FBA368334407
:103B7800984204D0284600F0C5FC0020F8BD28462D
:103B8800794201F07BFB013010D040F2F863A16864
:103B9800C2F20003F61B284646F001061A684E607A
:103BA800D71B1F6000F0AEFC0120F8BD284600219D
:103BB80001F064FBA368C21A0F2ADBDD40F27854D7
:103BC80040F2F861C2F20004C2F2000142F00102C0
:103BD8005A602368C01A0860CCE700BF2DE9F0419D
:103BE8000E46804600295ED000F08AFC40F270152F
:103BF80056F8041CC2F20005A6F1080421F00103DE
:103C0800AF68E2189742506820F0030061D011F0C5
:103C18000101506018BF00210FD156F8086C05F15A
:103C2800080CA41B3344A66866450FBF0121D4F8CD
:103C38000CC0C6F80CC0CCF8086016187668F607F1
:103C480008D40344906811B9494EB04260D0D26894
:103C5800C260906043F001026260E350F1B9B3F5CD
:103C6800007F22D35A0A042A5BD8980938304100C9
:103C780005EB810540F27011C2F20001AA68AA4260
:103C88005BD0516821F003018B4202D292689542C1
:103C9800F7D1D368E360A2609C60D4604046BDE879
:103CA800F04100F02FBCBDE8F081DB080121686815
:103CB80005EBC3029B1001FA03F391681843E26015
:103CC80068604046A1609460CC60BDE8F04100F0B7
:103CD80019BCCF07184407D456F8083CE41A18440E
:103CE800A268E368D3609A6040F27C5240F0010316
:103CF800C2F200026360AC6013689842CED340F20F
:103D0800F4634046C2F200031968FFF715FFC5E7E0
:103D18006C6143F001022C61E060A0606260E350D6
:103D2800BCE7142A9CBF02F15B004100A0D9542AC9
:103D38000CD8180B6E3041009AE701264D688010A8
:103D4800134606FA00F005434D60A3E7B2F5AA7FD3
:103D580003D8D80B773041008AE740F254518A42A1
:103D680095BF980CFC217C307E2098BF41007FE7EE
:103D78007801002010B514463AB142F67061104639
:103D8800C0F6010101F08EFA20B942F61860C0F6BB
:103D9800010010BD42F618612046C0F6010101F08D
:103DA80081FA0028F1D042F63C612046C0F60101B4
:103DB80001F078FA42F61863C0F6010300280CBF38
:103DC8001846002010BD00BF40F2F400C2F2000007
:103DD800704700BF40F2F403C2F20003186A70474C
:103DE80000487047180100200020704700487047BD
:103DF8003801002040F200030A46C2F200030146DF
:103E08001868FFF7B7BF00BF0048704738010020A7
:103E180040F200030146C2F20003186800F008B837
:103E280040F200030146C2F200031868FFF7D6BE4D
:103E38002DE9F04F01F10B04162C83B08EBF24F04E
:103E4800070400231024074688BFE30F8C422CBFC9
:103E5800194643F00101002940F0BA8000F050FBF8
:103E6800B4F5FC7F20D240F270164FEAD40CC2F2AF
:103E7800000606EBCC02D368934200F0F78159683C
:103E880003F10808DA68384621F0030499682344E6
:103E98005C68CA6044F0010491605C6000F032FB29
:103EA800404603B0BDE8F08F5FEA542C04BF7E257E
:103EB8004FF03F0C40F0948040F27016C2F20006BA
:103EC80006EB8505EB689D4206D10DE0002A80F2DD
:103ED8006481DB689D4207D0596821F003010A1B01
:103EE8000F2AF3DD0CF1FF3C0CF1010C40F27012CB
:103EF8003369C2F2000202F1080E734508BF516827
:103F080023D0586820F00300011B0F2900F3928189
:103F18000029C2F814E0C2F810E06CDAB0F5007FAE
:103F280080F06181C0084FF00108516802EBC005BC
:103F3800801008FA00F848EA0108A8684146DD60E0
:103F4800C2F804809860AB60C36001224FEAAC03FA
:103F580002FA03F38B425CD819420BD193402CF040
:103F6800030C19420CF1040C04D15B000CF1040C95
:103F78001942FAD006EBCC08E1464046C2689042A6
:103F880007D16BE1002980F27B81D268904200F072
:103F98006581556825F00305291B0F29F2DD904638
:103FA800D5683846131958F8087F44F0010C41F0D9
:103FB8000104C2F804C0FD60AF6073613361C3F8E7
:103FC8000CE0C3F808E05C60595000F09BFA67E722
:103FD8004FF000080C230360404603B0BDE8F08FA3
:103FE800BCF1040F00F2EB804FEA941C0CF1380C82
:103FF8004FEA4C0560E71A1803F108083846536879
:1040080043F00103536000F07DFA404603B0BDE879
:10401800F08FB5686B6823F0030A544504D8C4EBE5
:104028000A030F2B00F3A88040F2F469D6F80814AD
:10403800C2F200093846013105EB0A02D9F800300E
:104048000192234417BF03F5805303F1100B0F337C
:1040580023F47F6318BF23F00F0B594601F00EF9C4
:10406800019AB0F1FF3F804600F02081824200F2C1
:104078001A81D9F8043042455B44C9F8043000F08D
:104088006581D6F8081440F27010C2F200000131C0
:1040980017BFC2EB0802C0F808849B18C9F804309F
:1040A80018F0070338461FBFC3F10802C3F5805351
:1040B800904403F1080208EB0B0308BF4FF4805249
:1040C800C3F30B03C3EB020B594601F0D7F840F2D8
:1040D800F462C6F80880C2F20002431CD9F8043022
:1040E80015BFC8EB0001012159444FF0000B18BF60
:1040F80041F00101B5425B44C8F80410C9F8043026
:1041080018D0BAF10F0F40F20081AAF10C006968CB
:1041180020F007004FF0050C05EB000E0F2801F00A
:10412800010140EA01016960CEF804C0CEF808C078
:1041380000F2188140F2F462D9F82C10C2F20002A1
:10414800B5688B42D9F8301088BFD36240F2F46268
:10415800C2F200028B4288BF13636A6822F003022E
:104168009442C4EB020301D80F2B05DC38464FF00C
:10417800000800F0C7F993E62A1943F0010338460E
:1041880044F001046C6005F10808B260536000F067
:10419800B9F9404603B0BDE8F08F1944DA689C6865
:1041A80038464D6803F10808E26045F0010594605F
:1041B8004D6000F0A7F9404603B0BDE8F08FBCF1B0
:1041C800140F9CBF0CF15B0C4FEA4C057FF674AEE4
:1041D800BCF1540F00F28F804FEA143C0CF16E0CC6
:1041E8004FEA4C0568E6420A042A58D9142A9CBFAB
:1041F80002F15B014D0005D9542A00F2BC80010B85
:104208006E314D0006EB850540F27018C2F20008C9
:10421800AA68AA427FD0516821F00301884202D2DD
:1042280092689542F7D1D0687168D8609A608360C7
:10423800D3608AE61D1941F0010644F001043846AE
:104248005C6003F1080855611561C5F80CE0C5F814
:1042580008E06E60695000F055F921E609F101099E
:10426800083019F0030F7FF489AE28E003F1080243
:104278005B699A4208BF0CF1020C3FF437AEFEE5C9
:1042880090461544D368384658F8082F696841F0B5
:1042980001016960D3609A6000F034F900E6810991
:1042A80038314D00AEE7B5423FF4E3AEB5686A6811
:1042B80022F0030254E7D8F8008090456DD11CF035
:1042C800030FA8F108020CF1FF3CF4D1726822EA4E
:1042D800030272605B0093423FF69BAE002B3FF4F3
:1042E80098AE1A42CC467FF445AE5B000CF1040C44
:1042F8001A42FAD03EE6BCF5AA7F18D84FEAD43C59
:104308000CF1770C4FEA4C05D6E501234546C8F871
:104318000430002224E74FF001098D10D8F804106A
:10432800104609FA05F52943C8F804107DE740F25C
:1043380054539C4595BF4FEA944CFC250CF17C0CDA
:104348004FF07E0C98BF4FEA4C05B5E5C2F30B0160
:1043580000297FF496AEB2680BEB0A0141F0010127
:104368005160E7E605F1080138460192FFF736FC8F
:10437800019A5368DEE6B2F5AA7F03D8C10B7731FC
:104388004D003FE740F254518A4295BF810CFC250D
:104398007C317E2198BF4D0034E772689AE700BFF0
:1043A8008307C9B270B43FD0541E2AB303788B4236
:1043B80023D0431C04E0FCB1057814468D421CD080
:1043C80013F0030F184604F1FF3203F10103F2D191
:1043D800032C14D8651E4CB303788B420DD0421CB5
:1043E800002302E004788C4207D0AB42104603F168
:1043F800010302F10102F5D1002070BC704741EAC7
:104408000126034646EA0646184604330268724007
:10441800A2F1013525EA020212F0803FDAD1043C0C
:104428001846032CF0D8D5E71446D1E72046E4E730
:104438008842F0B410D98C18A0420DD28518531EAA
:1044480042B121462A4611F8014D013B02F8014DBF
:104458005C1CF8D1F0BC70470F2A46D940EA01032A
:104468009B0746D1A2F110070C4603463F0900EB13
:104478000716103625681033103443F8105C54F8CA
:104488000C5C43F80C5C54F8085C43F8085C54F87E
:10449800045C43F8045CB342ECD17B1C02F00F0CC3
:1044A800BCF1030F4FEA03131944034423D90E4602
:1044B8001D46644656F8047B043C032C45F8047BEF
:1044C800F8D8ACF1040402F0030224F00304043425
:1044D80023442144002ABDD01A4411F8014B03F8A3
:1044E800014B9342F9D1F0BC70470346002AF3D13F
:1044F800B0E70346F0E76246002AEDD1AAE700BF1D
:10450800704700BF704700BF70B50646446A0D4645
:1045180064B1E2689AB152F82530E3B1196842F8FB
:104528002510002218461A61DA6070BD1020FFF7C6
:104538006FFC7062446084600460C4600446212299
:104548003046042101F0BCFD736AE060DA68002A95
:10455800E1D1002070BD01233046194603FA05F465
:10456800621D920001F0ACFD03460028F1D04560C1
:104578008460D6E730B50446456A83B055B139B191
:10458800636A4A68DB6853F82200086043F822101F
:1045980003B030BD10200191FFF73AFC0199606229
:1045A800456085600560C560E9E700BF2DE9F04713
:1045B8008846D1F810A082B0814601F11405002484
:1045C8002F680134A245BEB24FEA174702FB0636F0
:1045D80002FB07F303EB1643B6B206EB03464FEABA
:1045E800134345F8046BEBDC53B1D8F80820924527
:1045F8000ADA08EB8A010AF101024B61C8F81020B7
:10460800404602B0BDE8F087D8F804104846019348
:104618000131FFF779FFD8F8102008F10C010232B8
:10462800920004460C30FCF7A3FE41464846A046DB
:10463800FFF7A0FF019BDCE72DE9F843994648F610
:10464800396309F10805C3F6E3030C4607469046AB
:1046580083FB0513ED17089EC5EB6303012B35DDBE
:10466800012500216D000131AB42FBDC3846FFF724
:104678004BFFB8F1090F4FF00103DCBF0A344FF0CC
:1046880009084661036110DD04F109064444354612
:1046980015F8013B01460A223846303BFFF786FFF2
:1046A800A542F5D106EB0804083CC1450CDDC8EB72
:1046B8000908A04414F8013B01460A223846303B59
:1046C800FFF774FF4445F5D1BDE8F8830021CDE735
:1046D800030C06BF00041023002310F07F4F04BF13
:1046E8000002083310F0704F04BF0001043310F0CB
:1046F800404F04BF80000233002805DB420001D48C
:1047080020207047581C70471846704703680246B7
:1047180013F0070009D0D90721D498074BBF5B08CD
:104728009B08012002201360704799B209B91B0C3D
:10473800102013F0FF0F04BF1B0A0830190704BF2D
:104748001B090430990704BF9B080230D90704D419
:104758005B0801D1202070470130136070470020AA
:10476800704700BF10B50C460121FFF7CDFE0122AE
:104778004461026110BD00BF2DE9F04F0C460E697F
:1047880085B015699346AE4204DA32465C462E4639
:104798008B461546A36806EB050961689945C8BFAD
:1047A8000131FFF7B1FE00F1140A02900AEB89010A
:1047B80001918A4506D2019A5346002043F8040B1A
:1047C8009A42FBD80BF1140B14340BEB85050094BB
:1047D800AB4504EB86063CBFCDF80C90A94654D2F5
:1047E8005BF8043B9CB2002C64D00099524600252B
:1047F800A44600E01A4651F8044B134617688E4247
:104808001FFA84F84FEA1444B8B24FEA17470CFB72
:1048180008080CFB0470454400EB1540ADB245EAAE
:1048280000444FEA104543F8044BE3D855605BF861
:10483800044C240C23D0DAF800105046009B0027C3
:104848000D4600E01046B3F800C02D0C024689B2B0
:1048580004FB0C552F4441EA074142F8041B416808
:1048680053F804CB0D4689B29E424FEA1C4C04FB18
:104878000C1101EB17414FEA1147E3D84160D945C4
:104888000AF1040AACD8DDF80C90B9F1000F0ADD82
:10489800019B043B1A681AB105E053F8042D12B9BC
:1048A800B9F10109F9D102990846C1F8109005B08B
:1048B800BDE8F08F1C46BCE712F003032DE9F04376
:1048C800144683B007460E462BD1A4101CD07B6A31
:1048D800002B32D09D68002D3AD04FF0000904E03B
:1048E800641011D0286898B10546E007F8D531461C
:1048F8002A463846FFF740FF314680463846FFF7DC
:1049080039FE64104646EDD1304603B0BDE8F08369
:10491800384629462A46FFF72FFF2860C0F800903E
:10492800E2E742F690125D1EC0F60102002352F83B
:104938002520FFF73BFE0646C7E710200193FFF747
:1049480067FA019B7862436083600360C360034633
:10495800012138460193FFF7D7FD019B40F27122F0
:104968000121426105460022016198600260B4E7B6
:104978002DE9F84F93460A690F464FEA6B158B6885
:1049880005EB0209804609F1010649689E4203DDEC
:104998005B0001319E42FBDC4046FFF7B5FD002D70
:1049A800824600F1140409DD00232246194601332A
:1049B80042F8041BAB42FAD104EB83043A691BF0BA
:1049C8001F0B07F1140303EB82021FD0CBF1200E5B
:1049D800002000E02C461968254601FA0BF108432F
:1049E80045F8040B53F8040B934220FA0EF0F1D368
:1049F800606008B109F102064046013E3946CAF82E
:104A08001060FFF7B7FD5046BDE8F88F53F8041B58
:104A18009A4244F8041BEFD953F8041B9A4244F80D
:104A2800041BF3D8E8E700BF02690B6910B4D21A77
:104A380018BF104612D19A0014301431831811444B
:104A480001E098420DD253F8042D51F8044DA242CA
:104A5800F7D0944294BF01204FF0FF305DF8044B2B
:104A6800704700205DF8044B704700BF2DE9F84FF0
:104A780088460546114640461446FFF7D5FF061EF0
:104A88005FD0BCBF4346A0462846B8BF1C46D8F8EE
:104A98000410ACBF00260126FFF736FDD8F810C079
:104AA80004F11409226908F1140844464D4608EB3C
:104AB8008C0809EB82090022824600F11403C660C3
:104AC80054F8047B55F8040B2146BEB2A94532447C
:104AD8001FFA80FBCBEB02064FEA1042C2EB1742EB
:104AE80002EB2642B6B246EA02464FEA224243F8B1
:104AF800046BE5D8A0451D4616D951F8040B884526
:104B080086B24FEA1040324400EB224092B242EAA9
:104B180000464FEA204243F8046BEED8E34343448F
:104B280023F0030304332B44043B2EB953F8042D1C
:104B38000CF1FF3C002AF9D05046CAF810C0BDE875
:104B4800F88F28463146FFF7DFFC012203465E61F5
:104B58001A61BDE8F88F00BF0023C7F6F0730B4059
:104B6800A3F15073002B02DD1946002070475B4209
:104B78001B15132B0BDD322B4FF00001DBBF01227D
:104B8800C3F13303012302FA03F3184670474FF4C5
:104B98000022002042FA03F1704700BFF8B500F187
:104BA8001406046906EB8404271F54F8045C28469D
:104BB800FFF78EFD0A28C0F120030B6018DCBE4207
:104BC800C0F10B0125FA01FC00F1150034BF54F8BF
:104BD800084C002105FA00F54CF07F5C4CF44013BA
:104BE80038BF24FA01F141EA050219461046F8BD1A
:104BF800BE4236BFA4F10807002154F8081CB0F1E2
:104C08000B0419D0A540C0F12B00B74245F07F55E1
:104C180021FA00FC45F4401545EA0C038CBF57F80F
:104C2800045C002001FA04F188BF25FA00F040EA8C
:104C3800010219461046F8BD45F07F550A4645F46D
:104C4800401310461946F8BD2DE9F04182B0012104
:104C58001D46C3F30A561446089FFFF755FCC5F3D3
:104C6800130384460EB143F48013019324B302A8BE
:104C780040F8084D6846FFF749FD002834D1009BED
:104C88000199CCF81430CCF8181000290CBF012178
:104C98000221CCF81010DEB90CEB8103A0F23240EF
:104CA80038601869FFF714FD099BC0EB41101860C4
:104CB800604602B0BDE8F08101A8FFF727FD019B1F
:104CC8000121CCF814302030CCF81010002EE3D09D
:104CD800099AA6F23348C0F135034044386060466B
:104CE800136002B0BDE8F081019BC0F12004009A76
:104CF80003FA04F4C340224319460193CCF8142064
:104D0800C1E700BF2DE9F04383B0884669460646EF
:104D1800FFF744FF0D46044601A94046FFF73EFF52
:104D2800D8F810E02F46024630690B468946CEEB8C
:104D3800000E9DE80300C1EB000C0CEB4E1100299E
:104D4800C9BF05EB0157A3EB015924463D46DCBF1B
:104D580012464B4620462946FBF718FE03B0BDE82D
:104D6800F08300BF172810B504460CDD0021002091
:104D7800C3F6F07100230022C4F22403FBF7DCFC25
:104D8800013CF7D110BD42F69013C0F6010303EBC6
:104D9800C003D3E9040110BD70B40139156902F1EB
:104DA80014034E11013603EB8505AB4200EB860672
:104DB8000CD2014653F8044B9D4241F8044BF9D8F4
:104DC800AB1A153B23F0030304331844864204D975
:104DD800002340F8043B8642FBD870BC704700BFF4
:104DE80003694A1110B4934200F11404B8BF04EBEC
:104DF800830313DB10DD11F01F010DD054F82200DE
:104E080004EB820320FA01F202FA01F1814205D093
:104E180001205DF8044B704704EB82039C420AD2E0
:104E280053F8042C043B22B1F2E753F8042D002A6E
:104E3800EED19C42F9D300205DF8044B704700BFC7
:104E48002DE9F04F0C4683B090468146002900F0CA
:104E58004881FFF755FB08F10B06162E54F804CCD1
:104E68008DBF26F0070610220023324688BFF30FB5
:104E7800A4F108072CF0030598BF1646464538BF2D
:104E880043F00103002B40F03281954216DBA04627
:104E98006046AB1B0F2B00F2CC807B1900F0010C95
:104EA8004CEA05057D605A6842F001025A6048469E
:104EB800FFF728FB404603B0BDE8F08F40F2701AB8
:104EC8007919C2F2000ADAF80800884200F0148161
:104ED800D1F804E02EF0010B8B44DBF804B01BF092
:104EE800010F1CBF9E46714656D01CF0010F40F0C2
:104EF800B38054F8083CC3EB070BDBF8043023F00D
:104F080003032B44002955D0814200F021819E449F
:104F180096454FDBCB68D84689682A1F242ACB6080
:104F28009960DBF80C3058F8081FCB60996000F2E4
:104F38006A81132A98BF424623D923681B2A98BF3F
:104F48000BF11002CBF80830636898BF0834CBF82F
:104F58000C3016D9A368242A14BF0BF118020BF1E0
:104F68002002CBF81030E36818BF1034CBF81430A7
:104F780001BF2369CBF818306369183408BFCBF830
:104F88001C30236875465F46136063685360A368E6
:104F98009360DBF804007CE72EF0030E0EEB0503AC
:104FA8009342A2DBCA68A046896860461D46CA606B
:104FB80091606EE793424FDBD846DBF80C102A1F4E
:104FC80058F8080F242AC160886000F2B480132AB8
:104FD80098BF414622D921681B2ACBF8081061687E
:104FE80098BF0834CBF80C1098BF0BF1100115D9F5
:104FF800A168242ACBF81010E16818BF1034CBF848
:10500800141011BF0BF1180122690BF12001CBF824
:10501800182002BF62691834CBF81C2022681D468C
:105028005F460A6063684B60A3688B60DBF8040026
:105038002FE7B91900F0010CCA184CEA060643F02C
:1050480001037E604B6048465368083143F0010312
:105058005360FEF7C3FD2AE741464846FEF7E8FEDF
:10506800804600283FF423AF54F8043CA0F108011F
:1050780023F001023A44914200F0BD802A1F242AFD
:1050880062D8132A9CBF034622461FD923681B2ACD
:1050980098BF04F1080203606368436098BF00F199
:1050A800080313D9A368242A14BF04F1100204F1D9
:1050B80018028360E368C36011BF00F1100321691F
:1050C80000F11803016104BF616941611168196049
:1050D8005168596092689A6021464846FEF77EFDFD
:1050E800E5E6114603B0BDE8F04FFEF7A1BE0C237C
:1050F8000020C9F80030DEE6436806F1100123F00D
:10510800030E0EEB05038B42B8BF0146FFF6EDAE6A
:1051180037449B1BCAF8087043F001037B6048467C
:1051280054F8043C03F001031E4344F8046CFFF7F1
:10513800E9F92046BFE6214640461D465F46FFF78F
:1051480077F9DBF80400A4E62146FFF771F9C3E715
:1051580006F110010EEB030C8C45FFF62BAFD84679
:10516800DBF80C302A1F58F8081F242ACB609960F6
:1051780052D8132A98BF434622D923681B2ACBF852
:105188000830636898BF0834CBF80C3098BF0BF12F
:10519800100315D9A368242ACBF81030E36818BF88
:1051A8001034CBF8143011BF0BF1180322690BF13E
:1051B8002003CBF8182002BF62691834CBF81C20F2
:1051C80022681A6062685A60A2689A600BEB06034C
:1051D800C6EB0C02CAF8083042F001025A60484691
:1051E800DBF8043003F001031E43CBF80460FFF73B
:1051F80089F940465FE650F8042C1846A04622F08C
:1052080003031D4445E62146404675465F46FFF7C1
:105218000FF9DBF804003CE621464046CDF804C00F
:10522800FFF706F9DDF804C0D0E700BF50EA010334
:1052380001D102207047D0F1010338BF0023B1F13A
:10524800004F08BF0028F4D021F000414FF6FF724C
:10525800A1F58010C7F6DF72904201D8042070478C
:10526800B1F5801F01D2032070470020C7F6F07007
:10527800814214BF002003F00100704738B547F29F
:10528800D074C2F2000405460846002323600AF0E1
:1052980085F9431C00D038BD2368002BFBD02B6058
:1052A80038BD00BF40EA010C1CF0070F27D1BDF143
:1052B800100DCDE90245CDE900676FF000064FF00B
:1052C800000700BFF0E80223F1E80245A242A2F17C
:1052D800013C2CEA020C0CF0803C08BFBCF1000F2A
:1052E80040F0E580AB42A3F1013C2CEA030C0CF042
:1052F800803C08BFBCF1000F40F0D680E2E710F018
:10530800030C21D020F0030050F8042B5FEACC7C7A
:1053180008D00FD211F801CB5FFA92F3B3EB0C0C63
:1053280010D17BB111F801CB5FFAA2F3B3EB0C0CEF
:1053380008D13BB111F801CB5FFAB2F3B3EB0C0C17
:1053480000D10BB960467047BDF1100DCDE902459B
:10535800CDE900676FF000064FF0000711F0030C6D
:1053680033D110F0040F0FD050F8042B51F8044B30
:10537800A242A2F1013C2CEA020C0CF0803C08BFCE
:10538800BCF1000F40F0938011F0040F99D051F850
:10539800045B00BFF0E80223AA42A2F1013C2CEA18
:1053A800020C0CF0803C08BFBCF1000F79D1F1E889
:1053B8000245A342A3F1013C2CEA030C0CF0803C0B
:1053C80008BFBCF1000F69D1E4E721F00301BCF18B
:1053D800020F20D03FDA51F8045B00BF50F8043BBD
:1053E8004FEA1525A3F1013C2CEA030C0CF0803C94
:1053F800B7EB0C2F03EA162208BFAA4251D151F885
:10540800045BBCF1000F82EA03034FEA056208BFA0
:10541800934240D1E2E751F8045B00BF50F8043BE7
:105428004FEA1545A3F1013C2CEA030C0CF0803C33
:10543800B7EB0C4F03EA164208BFAA4231D151F824
:10544800045BBCF1000F82EA03034FEA054208BF80
:10545800934220D1E2E751F8045B00BF50F8043BC7
:105468004FEA1565A3F1013C2CEA030C0CF0803CD3
:10547800B7EB0C6F03EA166208BFAA4211D151F8C4
:10548800045BBCF1000F82EA03034FEA052208BF60
:10549800934200D1E2E719BA12BA0AE019BA22BA5D
:1054A80007E011BA2ABA04E019BA2ABA01E011BA17
:1054B80022BA9CFA8CF0DDE90067DDE902451DF1AE
:1054C800100D38B1B0FA80F0C0F1180021FA00F1DF
:1054D80022FA00F20120914298BF8041704700BF34
:1054E8002DE9F04F9246946883B080460D461668C1
:1054F800002C71D04FF0000B08688B685C46002CBC
:1055080045D09C421F4648D3AB8913F4906F08BF1F
:10551800B9462CD06F69621C296907EB4709471AFD
:105528003A4409EBD9794FEA6909914534BF914664
:105538004A465B0534D511464046FEF779FC0028FB
:1055480038D029693A460190FBF712FFAA89019BD6
:1055580022F4906242F08002AA81D819C5F814900A
:10556800C7EB0907A146AF6027462B6128604A466A
:105578005946FEF75DFFDAF80820AB682868141B67
:10558800DB1BAB6048442860CAF8084024B3D6F84F
:1055980000B0083656F8044CB1E72746A146E6E7BE
:1055A8004046FFF74DFC03460028D6D140462969FE
:1055B800FEF714FBAA894FF0FF340C232046C8F8E5
:1055C800003042F040020023AA81CAF80830CAF825
:1055D800043003B0BDE8F08F2046CAF8044003B099
:1055E800BDE8F08F2DE9F04FB3B092460B938B894D
:1055F80008911A06059003D50B69002B00F0228547
:105608000DF1880842F6B8254646C0F601050DF1A9
:10561800870400230D9505F110070E93C4EB0805C8
:1056280001940A93119517931693CDF854809AF81C
:105638000030002B18BF252B00F0CA830AF10102A5
:10564800144601322378252B18BF002BF8D1B4EB70
:105658000A0510D0169B179A0133C6F800A0072B2D
:1056680075602A4416931792D8BF083600F336841B
:105678000A9828440A902378002B00F0BC83002362
:1056880004F1010A19468DF84F3008460493029335
:1056980063784FF0FF3403940AF1010AA3F1200262
:1056A800582A00F2B582DFE812F0A302B302B3026F
:1056B800AA02B302B302B302B302B302B30259009F
:1056C8008502B30261000C02B3020502F701F7017B
:1056D800F701F701F701F701F701F701F701B30245
:1056E800B302B302B302B302B302B302B302B3020A
:1056F800B302DC01B302B302B302B302B302B302D2
:10570800B302B302B302B3026902B302B302B30233
:10571800B302B3022C02B302B3024502B302B302CE
:10572800B302B302B302B302B302B302B302B302C9
:10573800CA01B001B302B302B302A901B001B302B6
:10574800B3029701B3028501310142017E01B30220
:105758005901B3026800B302B30289020B9C231DEE
:105768002068002880F2008440420B93029D45F097
:10577800040502959AF800308EE7029D0490AA0667
:1057880040F1C8810B9C0123E21D22F0070202F1BF
:1057980008050B95D2E900454FF0000C8DF84FC075
:1057A800039A002AA2BF029820F08000029054EACF
:1057B800050103980CBF00220122002818BF42F0FF
:1057C8000102002A00F00683012B00F0AB83022BB4
:1057D8000DF1870279D1DDF838B004F00F01230903
:1057E80043EA057328091BF801101C460546914633
:1057F80054EA050002F1FF3289F80010EDD1C9EB37
:1058080008030693069C039DAC42B8BF2C46BCF126
:10581800000F00D00134029B029D13F0020309938C
:1058280018BF023415F084050C9540F001820498E5
:10583800051B002D40F3FC81102D42F6B823179963
:1058480040F30D84C0F60103CDF83C9010944FF05E
:10585800100B169A0793DDF820900D9C02E0103D7E
:10586800102D17DD01321031072A86E8100816922C
:1058780006F108061791F2DD0598494615AA46462D
:10588800FFF72EFE002840F0BD82103D1799102D1D
:10589800169AE7DCDDF83C90109C0132079B072A3A
:1058A8002944169286E82800D8BF0836179140F395
:1058B800C181059815AA0899FFF712FE002840F043
:1058C800A18217994646169AB4E1E308E90843EA23
:1058D800457391460D4604F007021C4602F1300359
:1058E80054EA050109F1FF3289F80030EDD1029C34
:1058F8004946E00740F14783302B80D03023C2EB84
:1059080008049146069401F8013C7BE7029D049047
:1059180015F0200300F03C810B9C0023E21D22F0CF
:10592800070202F108050B95D2E9004534E70B9B05
:10593800029D049045F0020502951D1D0B9542F647
:1059480040651C68C0F6010530230E9500258DF8CA
:10595800503078238DF8513002231DE70B9C0490BA
:105968000B98D4F800900024051D8DF84F40B9F12C
:10597800000F00F07983039800284846C0F24B8353
:105988002146039AFEF70CFD002800F07A830B9558
:10599800C9EB0000039D9DF84FC0A842B8BF05465B
:1059A800039406952EE7029C44F0200402949AF88A
:1059B800003071E6029C8DF84F10A00600F11E839E
:1059C800029CE10640F130830B9D0A9C043555F892
:1059D800043C0B951C602AE69AF8003052466C2B62
:1059E80005BF0AF1010A029C029D44F020040BBF86
:1059F800537845F01005029402954DE6029D45F056
:105A0800400502959AF8003046E6029D0490AB06E0
:105A18008DF84F102FD50B9CE31D23F0070303F1DE
:105A280008050B95D3E9002314461D46002A73F197
:105A38000000C0F2C8829DF84FC00123B0E60B9B5E
:105A48000DF160090B9D0124002204901B680435A8
:105A580006940B958DF84F208DF86030002503953E
:105A6800D9E6029C049044F010040294029D8DF83B
:105A78004F10AB06CFD4029CE50600F19782029C3A
:105A8800640640F193820B98043030F9044C0B9073
:105A98002246E5172B46C9E7A3F13002002000EBA8
:105AA80080001AF8013B02EB4000A3F13002092AFA
:105AB800F5D9F3E5029C44F0800402949AF800308A
:105AC800EAE59AF800300AF101052A2B00F0E18294
